:100000000C94CF000C94EC000C94EC000C94EC00DD
:100010000C94EC000C94EC000C94EC000C94EC00B0
:100020000C94EC000C94EC000C94EC000C94EC00A0
:100030000C94EC000C94EC000C94EC000C94EC0090
:100040000C94EC000C94EC000C94EC000C94EC0080
:100050000C94EC000C94EC000C94B7040C94EC00A1
:100060000C94EC000C94EC00494E46494E4954590E
:100070004E414ECDCCCC3D0AD7233C17B7D1387773
:10008000CC2B329595E6241FB14F0A000020410089
:1000900000C84200401C4620BCBE4CCA1B0E5AAED3
:1000A000C59D7400407A10F35A00A0724E180900E2
:1000B00010A5D4E80000E87648170000E40B5402CD
:1000C0000000CA9A3B000000E1F505000080969808
:1000D00000000040420F000000A086010000001058
:1000E0002700000000E8030000000064000000009A
:1000F000000A00000000000100000000002C76D87B
:1001000088DC674F0823DFC1DFAE59E1B1B796E560
:10011000E3E453C63AE651997696E8E6C28426EBC4
:10012000898C9B62ED407C6FFCEFBC9C9F40F2BAD7
:10013000A56FA5F490055A2AF75C936B6CF9676D6F
:10014000C11BFCE0E40D47FEF520E6B500D0ED90C4
:100150002E0300943577050080841E080000204E91
:100160000A000000C80C333333330F986E1283112A
:1001700041EF8D2114893BE65516CFFEE6DB18D101
:10018000844B381BF77C1D901DA4BBE424203284D3
:10019000725E228100C9F124ECA1E53D2700112403
:1001A0001FBECFEFD8E0DEBFCDBF14E0A0E0B1E0CE
:1001B000EAE0F9E302C005900D92A83EB107D9F735
:1001C00015E0A8EEB4E001C01D92A330B107E1F73D
:1001D0000E94E2140C94FE170C940000EF92FF9220
:1001E0000F93DF93CF93CDB7DEB760970FB6F89438
:1001F000DEBF0FBECDBFA82F002309F461C07E0172
:100200000894E11CF11C88E0F70111928A95E9F746
:1002100029833A834B835C836D837E83AF83988786
:1002200080E2801BE82FFF27E7FDF0954D815E817E
:100230006F817885181684F01D861E861F86188AA1
:10024000882799278E1B9F0B04C076956795579535
:1002500047958A95D2F728C0202F332727FD309560
:10026000DB01CA01022E04C0B695A7959795879524
:100270000A94D2F78D879E87AF87B88B04C0440F4E
:10028000551F661F771FEA95D2F789819A81AB8146
:10029000BC8104C0B695A795979587952A95D2F706
:1002A000482B592B6A2B7B2B49875A876B877C8776
:1002B00029853A854B855C856D857E85AF859889D6
:1002C0008A2F60960FB6F894DEBF0FBECDBFCF91D8
:1002D000DF910F91FF90EF900895EF92FF920F93AF
:1002E000DF93CF93CDB7DEB760970FB6F894DEBF3C
:1002F0000FBECDBFA82F002309F461C07E01089472
:10030000E11CF11C88E0F70111928A95E9F7298335
:100310003A834B835C836D837E83AF83988780E2CF
:10032000801BE82FFF27E7FDF09549815A816B81FB
:100330007C81181684F019861A861B861C868827ED
:1003400099278E1B9F0B04C0440F551F661F771FF4
:100350008A95D2F728C0202F332727FD3095DB015F
:10036000CA01022E04C0880F991FAA1FBB1F0A943E
:10037000D2F789879A87AB87BC8704C07695679543
:1003800057954795EA95D2F78D819E81AF81B885C3
:1003900004C0880F991FAA1FBB1F2A95D2F7482BAC
:1003A000592B6A2B7B2B4D875E876F87788B29852E
:1003B0003A854B855C856D857E85AF8598898A2FCA
:1003C00060960FB6F894DEBF0FBECDBFCF91DF9120
:1003D0000F91FF90EF9008958091E8040895109296
:1003E000E804089589E890E065E50E9443068823C3
:1003F00019F41092E804089581E18093E8040895C7
:100400008CE790E06AEA0E944306882319F4109270
:10041000E804089581E18093E804089589E890E074
:100420000E94C60490E0853509F491E0892F089573
:100430008CE790E00E94C60490E08A3A09F091E0CF
:10044000892F089585E890E064E00E947F05089573
:10045000AB01BC0185E890E024E00E940C078823F2
:1004600019F41092E804089581E18093E804089556
:100470008DE790E00E94D20408950F931F93CF93CD
:10048000DF93EC018B01009719F06115710521F4E0
:1004900082E08093E80413C08DE790E00E94D204CC
:1004A000688379838A839B8385E890E064E00E9477
:1004B0007F05F801608371838283938380E0DF91FD
:1004C000CF911F910F91089584E290E00E94D20491
:1004D0000895AB01BC018DE790E00E94510688238E
:1004E00019F41092E804089581E18093E8040895D6
:1004F000AF92BF92CF92DF92EF92FF920F931F9332
:100500007B018C0159016A018DE790E0B801A701D8
:100510000E945106882349F485E890E0B601A501C0
:1005200024E00E940C07882321F081E18093E804F5
:1005300002C00E94F2011F910F91FF90EF90DF9097
:10054000CF90BF90AF900895EF92FF920F931F93BB
:100550007B018C0120E030E040E050E00E94B315C8
:10056000882314F48AE00CC084E290E0B801A7016B
:100570000E945106882319F41092E80403C081E117
:100580008093E8041F910F91FF90EF900895EF92F0
:10059000FF920F931F937B018C0184E290E00E94F5
:1005A000D204A80197010E944F157B018C0120E025
:1005B00030E040E050E00E94B315882324F48AE044
:1005C0008093E80404C0C801B7010E94A4021F91EF
:1005D0000F91FF90EF900895982F8150853070F51E
:1005E0006115710511F482E02AC0933091F09430C6
:1005F00028F4913059F0923009F505C0943061F03B
:100600009530E1F40CC08CE390E00BC08CE290E0FC
:1006100008C08CE490E005C08CE590E002C08CE658
:1006200090E040E150E00E94D105882319F4109237
:10063000E804089581E18093E804089581E08093BF
:10064000E8040895982F81508530B8F5611571053B
:1006500011F482E033C0FB0101900020E9F73197EB
:10066000E61BF70B709710F085E028C0933091F0EF
:10067000943028F4913059F09230F9F405C0943058
:1006800061F09530D1F40CC08CE390E00BC08CE2AB
:1006900090E008C08CE490E005C08CE590E002C0DA
:1006A0008CE690E00E949007882319F41092E804E9
:1006B000089581E18093E804089581E08093E8043F
:1006C0000895BC01009711F482E00AC0FC0101907A
:1006D0000020E9F73197E81BF90B709720F085E0CF
:1006E0008093E804089580E090E00E9490078823BA
:1006F00019F41092E804089581E18093E8040895C4
:10070000982F81508530F8F4933091F0943028F48C
:10071000913059F09230B9F405C0943061F09530C1
:1007200091F40CC084E190E00BC080E190E008C03F
:1007300088E190E005C08CE190E002C080E290E0AA
:100740000E943505089581E08093E80460E070E040
:1007500080E090E0F7CFCF92DF92EF92FF921F936D
:10076000182F6A017B018150853008F044C0CB010D
:10077000BA0120E030E040E050E00E94B31587FD70
:100780000AC0C701B60120E034E244E759E40E9400
:100790005417181614F48AE026C0133091F0143060
:1007A00028F4113059F0123031F505C0143061F0E1
:1007B000153009F50CC084E190E00BC080E190E0B9
:1007C00008C088E190E005C08CE190E002C080E2C2
:1007D00090E0B701A6010E94B906882319F410928F
:1007E000E80403C081E18093E8041F91FF90EF903B
:1007F000DF90CF90089581E0F6CF1F93CF93DF93E2
:100800001092E8040E941802882309F443C080E093
:1008100091E00E9461038823E9F5CCEBD4E010E07D
:10082000488159816A817B81812F0E94AB03882393
:1008300089F51F5F2496153099F760E070E080E03D
:1008400090E00E94A402882329F581E065E071E030
:100850000E9422038823F1F482E06BE071E00E94A1
:1008600022038823B9F483E062E171E00E9422034D
:10087000882381F484E068E171E00E9422038823E8
:1008800049F485E063E271E00E942203882311F4B9
:100890000E940002DF91CF911F910895EF92FF9285
:1008A0000F931F93DF93CF93CDB7DEB760970FB64B
:1008B000F894DEBF0FBECDBF8C010097E1F080E061
:1008C00090E07E010894E11CF11CB70140E150E08A
:1008D0000E94D105882361F41092E804C801B70191
:1008E0000E9401189C0180E0232B31F481E004C0B8
:1008F00081E18093E80480E060960FB6F894DEBF53
:100900000FBECDBFCF91DF911F910F91FF90EF9060
:100910000895FC0190819093EA0481818093EB0417
:100920001092E90481E08093B0048281882329F049
:10093000913019F4FB9A78940895FB9808958FB339
:1009400086958095817008958FB390E096958795F0
:10095000817008958091E90408951092E904089542
:1009600020E08050944008F421E0822F08951F92E7
:100970000F920FB60F9211248F9381E08093B004F1
:100980008F910F900FBE0F901F90189524E080302C
:10099000920728F081E08093E9048FEF08950E9488
:1009A000331808959F92AF92BF92CF92DF92EF9249
:1009B000FF920F931F93DF93CF93CDB7DEB72897A6
:1009C0000FB6F894DEBF0FBECDBF6C0124E08030BF
:1009D000920720F407968050944040F081E0809385
:1009E000E90470E060E090E080E027C010E0BB2404
:1009F000AA249924EE24FF24C6010E94C604282FAD
:100A000030E040E050E060E070E080E090E00E2DEB
:100A10000E946D01122BB32AA42A952A0894C11CA6
:100A2000D11C88E090E0E80EF91E90E4E916F1048C
:100A300019F7712F6B2D9A2D892D272F362F492FBE
:100A4000582FB901CA0128960FB6F894DEBF0FBE21
:100A5000CDBFCF91DF911F910F91FF90EF90DF906D
:100A6000CF90BF90AF909F900895CF92DF92EF927A
:100A7000FF920F931F93CF93DF936C0124E080309C
:100A8000920720F403968050944040F081E08093D8
:100A9000E90470E060E090E080E022C0EE24FF24F2
:100AA0008701C0E0D0E0C6010E94C60490E0A0E04B
:100AB000B0E00C2E04C0880F991FAA1FBB1F0A9418
:100AC000D2F7E82AF92A0A2B1B2B0894C11CD11C47
:100AD0002896C032D10539F77E2D6F2D902F812FAA
:100AE000272F362F492F582FB901CA01DF91CF91F7
:100AF0001F910F91FF90EF90DF90CF900895AF92EC
:100B0000BF92CF92DF92EF92FF920F931F93CF93FA
:100B1000DF936C01A62E22E0621719F084E06817BB
:100B200099F420E0C21624E0D20670F4C6010197C1
:100B30008A0D911D8050944038F4BB24EE24FF248C
:100B40008701C0E0D0E01EC081E08093E904EE247C
:100B5000FF24870119C0C6010E94C60490E0A0E0EE
:100B6000B0E00C2E04C0880F991FAA1FBB1F0A9467
:100B7000D2F7E82AF92A0A2B1B2BB3940894C11C3C
:100B8000D11C2896BA1438F3B701C801DF91CF9170
:100B90001F910F91FF90EF90DF90CF90BF90AF909B
:100BA0000895CF92DF92EF92FF920F931F93CF930E
:100BB000DF936C018B016115710579F041155105C9
:100BC00061F080E0C81684E0D80638F4C0E0D0E0D8
:100BD0007A010894E108F10810C081E08093E904EB
:100BE00013C0CE018C0D9D1D0E94C604F801EC0FB0
:100BF000FD1F8083882321F02196CE15DF0588F321
:100C0000C00FD11F188280E0DF91CF911F910F910B
:100C1000FF90EF90DF90CF900895CF92DF92EF9208
:100C2000FF920F931F93CF93DF938C016B017A0197
:100C30006115710569F024E08030920748F401974E
:100C4000840F951F8050944018F4C0E0D0E00EC08F
:100C500081E08093E9040EC0CE01800F911F0E94B5
:100C6000C604F601EC0FFD1F80832196CE15DF052B
:100C700098F380E0DF91CF911F910F91FF90EF905B
:100C8000DF90CF90089524E08030920720F081E03B
:100C90008093E90408950E943B181092E90480E0D3
:100CA00008955F926F927F928F929F92AF92BF92C0
:100CB000CF92DF92EF92FF920F931F93DF93CF9328
:100CC000CDB7DEB728970FB6F894DEBF0FBECDBF05
:100CD0006C0124E08030920720F407968050944005
:100CE00020F081E08093E9042EC049835A836B830E
:100CF0007C8359806A807B808C809D80AE80BF80A1
:100D00001885EE24FF24252D362D472D582D692DCD
:100D10007A2D8B2D912F0E2D0E94EE00C601622F91
:100D20000E944306882319F08091E9040CC088E0F2
:100D300090E0E80EF91E0894C11CD11C90E4E9165D
:100D4000F10409F780E028960FB6F894DEBF0FBED5
:100D5000CDBFCF91DF911F910F91FF90EF90DF906A
:100D6000CF90BF90AF909F908F907F906F905F904B
:100D70000895CF92DF92EF92FF920F931F93CF933C
:100D8000DF936C0124E08030920720F403968050BA
:100D9000944020F081E08093E9041FC07A018B0128
:100DA000C0E0D0E0A80197010C2E04C056954795ED
:100DB000379527950A94D2F7C601622F0E94430601
:100DC000882319F08091E90408C028960894C11C72
:100DD000D11CC032D10531F780E0DF91CF911F9156
:100DE0000F91FF90EF90DF90CF900895CF93DF9316
:100DF000C0E0D0E0CE016FEF0E944306882319F0D7
:100E00008091E90406C0219684E0C030D80791F7AC
:100E100080E0DF91CF910895AF92BF92CF92DF92A1
:100E2000EF92FF920F931F93CF93DF938C015A01A0
:100E30006B01E22E22E0E21619F084E0E81679F464
:100E400024E00030120758F4C80101978E0D911D5F
:100E50008050944020F4FF24C0E0D0E01BC081E02B
:100E60008093E9041AC0A60195010C2E04C0569582
:100E70004795379527950A94D2F7C801622F0E94AB
:100E8000430628960F5F1F4F882319F08091E904CD
:100E900004C0F394FE1438F380E0DF91CF911F91EA
:100EA0000F91FF90EF90DF90CF90BF90AF9008959B
:100EB000CF92DF92EF92FF920F931F93CF93DF9326
:100EC0008C016B017A016115710569F024E08030B5
:100ED000920748F40197840F951F8050944018F4AE
:100EE000C0E0D0E010C081E08093E90410C0F601BA
:100EF000EC0FFD1FCE01800F911F60810E94430601
:100F0000882329F42196CE15DF0588F380E0DF9150
:100F1000CF911F910F91FF90EF90DF90CF900895A8
:100F20006115710521F481E08093E9040895DB01E6
:100F30000D900020E9F7A61BB70BAD010E945807E2
:100F4000089540E027E030E051E0459A852F8A95EA
:100F5000F1F783B182958F7090E081709070022ECE
:100F600002C0880F991F0A94E2F7482B4598852FF5
:100F70008A95F1F7215030408FEF2F3F380729F73E
:100F8000842F08957F928F929F92AF92BF92CF92BB
:100F9000DF92EF92FF920F931F93782E6A017B01ED
:100FA00048015901CB01BA0120E030E040E050E0B7
:100FB0000E94B315882351F40F2EF0E0CF2EF0E0FD
:100FC000DF2EF0E8EF2EFFE3FF2EF02DC092B204EB
:100FD000D092B304E092B404F092B5048092F2048B
:100FE0009092F304A092F404B092F50480E4781691
:100FF00049F080E8781621F080E2781659F408C0AC
:1010000081E001C083E08093B6047092B10408C00F
:1010100082E0F9CF81E08093B60480E88093B10448
:101020003D9A459824982C9A80E593EC0197F1F726
:101030001092EC041092ED041092EE041092EF0462
:101040001092F0041F910F91FF90EF90DF90CF90DE
:10105000BF90AF909F908F907F90089583B18295BD
:101060008F70809581700895AF92BF92CF92DF927A
:10107000EF92FF920F931F938091F104882309F45C
:1010800063C18091EC04882359F481E08093EC04DF
:101090001092ED041092EE041092EF041092F004FE
:1010A000E090ED04F090EE040091EF041091F00454
:1010B00080EDE81687E0F80680E0080780E0180772
:1010C00008F478C098E8E91693E1F90690E009077A
:1010D00090E0190708F06EC0C801B70124E630E0BF
:1010E00040E050E00E942A1CCA01B9012BE030E028
:1010F00040E050E00E942A1C653009F452C066307E
:1011000080F4623031F1633030F46623E9F061300D
:1011100009F047C014C0633009F1643009F041C0E0
:1011200022C0683079F1693028F4663009F16730FF
:10113000C1F523C0693059F16A3099F52DC06FE6C9
:1011400072E183E89BEB31C06AE077ED83EA9BEBC9
:101150002CC066EA7BE984E49BEB27C06FE672E172
:1011600083E09BEB22C06FE672E183E89AEB1DC03F
:101170006FE672E183E89AE318C06FE672E183E0FC
:101180009BE313C066EA7BE984E49BE30EC06FE651
:1011900072E183E89BE309C06AE077ED83EA9BE3B1
:1011A00004C060E070E080E090E020E030E040E0EB
:1011B00050E46DC0C801B70124E630E040E050E0E3
:1011C0000E942A1CCA01B9012BE030E040E050E047
:1011D0000E942A1C653009F452C0663080F46230E7
:1011E00031F1633030F46623E9F0613009F047C033
:1011F00014C0633009F1643009F041C022C0683086
:1012000079F1693028F4663009F16730C1F523C0FF
:10121000693059F16A3099F52DC06FE672E183E8C3
:101220009BEB31C06AE077ED83EA9BEB2CC066EA6A
:101230007BE984E49BEB27C06FE672E183E09BEBE4
:1012400022C06FE672E183E89AEB1DC06FE672E19F
:1012500083E89AE318C06FE672E183E09BE313C072
:1012600066EA7BE984E49BE30EC06FE672E183E803
:101270009BE309C06AE077ED83EA9BE304C060E08A
:1012800070E080E090E020E030E040E85FE30E9422
:101290004F155B016C0184E690E0A0E0B0E0E80E41
:1012A000F91E0A1F1B1FE092ED04F092EE0400935A
:1012B000EF041093F0046091F2047091F3048091B4
:1012C000F4049091F5040E9456167B018C01C6012E
:1012D000B5012091B2043091B3044091B40450910F
:1012E000B5040E9458179B01AC01C801B7010E94C8
:1012F0004F157B018C0120E030E040E05FE40E946C
:10130000541718165CF40F2EF0E0EF2EF0E0FF2ECD
:10131000F0E00F2FFFE41F2FF02D61C0C801B701CF
:1013200020E030E040E05FEC0E94B31588230CF031
:1013300056C00F2EF0E0EF2EF0E0FF2EF0E00F2F62
:10134000FFEC1F2FF02D4BC093E01C9953C0F89475
:101350000E94A107182F0E94A107082F0E94A10731
:10136000E82F2091B60490E031E009C0459A832F20
:101370008A95F1F74598832F8A95F1F79F5F921729
:10138000A8F37894612F70E080E090E0CB0177279C
:101390006627202F30E040E050E0542F432F322FBB
:1013A0002227622B732B842B952B2E2F30E040E0CD
:1013B00050E0622B732B842B952B110F110B212FD7
:1013C00030E040E050E0522F442733272227622BA1
:1013D000732B842B952B0E9456167B018C01B70131
:1013E000C8011F910F91FF90EF90DF90CF90BF90B9
:1013F000AF900895892F8A95F1F7A7CFCF92DF920A
:10140000EF92FF920F931F93CF93DF93C82E882301
:1014100011F4CC24C3940F2EF0E0EF2EF0E0FF2E59
:10142000F0E00F2FF0E01F2FF02DDD24C2EED4E00E
:101430000EC00E9434089B01AC01C801B7010E9494
:101440004F157B018C01CE010197F1F7D394DC1489
:1014500080F32C2D30E040E050E060E070E080E070
:1014600090E00E9450169B01AC01C801B7010E9498
:10147000B715DF91CF911F910F91FF90EF90DF9003
:10148000CF900895AF92BF92CF92DF92EF92FF92EA
:101490000F931F9381E00E94FE095B016C01E090B5
:1014A000B204F090B3040091B4041091B504C801E3
:1014B000B70120E030E040E050E00E94B3158823FF
:1014C000F1F06091F2047091F3048091F404909132
:1014D000F5040E9456169B01AC01C601B5010E949D
:1014E0004E15A80197010E94B7157B018C0120E0E1
:1014F00030E040E050E00E94B315882354F40F2EF2
:10150000F0E0EF2EF0E0FF2EF0E00F2FF0E01F2FC5
:10151000F02DB701C8011F910F91FF90EF90DF9060
:10152000CF90BF90AF9008958AE00E94FE090E947C
:101530001F166093F2047093F3048093F404909365
:10154000F5040895EF92FF920F931F937B018C0196
:1015500020E030E040E050E00E94B31518169CF502
:101560008AE00E94FE090E941F162091F204309129
:10157000F3044091F4045091F504621B730B840B47
:10158000950B0E945616A80197010E94B71560930B
:10159000B2047093B3048093B4049093B50420E034
:1015A00030E040E050E00E94B315882361F480E011
:1015B00090E0A0E8BFE38093B2049093B304A093BB
:1015C000B404B093B5041F910F91FF90EF9008956C
:1015D0000E94940A0895EF92FF920F931F937B014C
:1015E0008C0120E030E040E050E00E94B3158823F9
:1015F00041F0E092B204F092B3040093B40410936B
:10160000B5041F910F91FF90EF9008952091B204BF
:101610003091B3044091B4045091B504B901CA01AA
:1016200008956093F2047093F3048093F40490930C
:10163000F50408956091F2047091F3048091F4042C
:101640009091F50408958091B1040895459881E042
:101650008A95F1F7459A87E18A95F1F708954598BB
:1016600081E08A95F1F7089581E08093F10410926A
:10167000EC041092ED041092EE041092EF0410921C
:10168000F00408951092F1041092EC041092ED040D
:101690001092EE041092EF041092F004089510924C
:1016A000EC041092ED041092EE041092EF041092EC
:1016B000F00481E08093F10408951092EC041092FC
:1016C000ED041092EE041092EF041092F0041092C8
:1016D000F1040895389A399A3A9A3B9A409A419A75
:1016E000429A439A5098519852985398589A599AB6
:1016F0005A9A5B9A0895A0E0B0E07FEF41E050E095
:1017000061E078B928B1FD01E053FB4FCA010080C8
:1017100002C0880F991F0A94E2F78095822388B946
:10172000862F8A95F1F720E030E089B190E0F90149
:10173000EC52FB4F008002C0959587950A94E2F722
:1017400080FD0AC0AA0FBB1FAA0FBB1FA20FB31FA9
:10175000A852BB4F8C9108952F5F3F4F2430310525
:1017600021F71196A430B10561F68FEF08950E941C
:101770007B0B90E08F3F09F091E0892F0895CF9384
:10178000DF93C4ECD9E003C0CE010197F1F70E94CA
:101790007B0B8F3FC9F788E893E10197F1F7DF9161
:1017A000CF9108951F930E947B0B182F8F3F41F01C
:1017B00088E893E10197F1F70E947B0B81131FEFFB
:1017C000812F1F9108950F931F93CF93DF93C8E844
:1017D000D3E10E947B0B082F8F3FD9F3CE010197F5
:1017E000F1F70E947B0B182F801799F70E94BF0B0F
:1017F000812FDF91CF911F910F91089528984AEF83
:1018000050E0FA013197F1F7299AFA013197F1F78F
:101810009BB1282F207F9F70292B2BB9FA0131977C
:10182000F1F72998FA013197F1F7299AFA013197DE
:10183000F1F79BB18295807F9F70982B9BB9CA016D
:101840000197F1F72998CA010197F1F7089584B13A
:10185000836084B98AB1806F8AB982E00E94FE0BEE
:1018600088E20E94FE0B8CE00E94FE0B81E00E9449
:10187000FE0B0895289A4AEF50E0FA013197F1F7EC
:10188000299AFA013197F1F79BB1282F207F9F7099
:10189000292B2BB9FA013197F1F72998FA013197E1
:1018A000F1F7299AFA013197F1F79BB18295807F80
:1018B0009F70982B9BB9CA010197F1F72998CA012B
:1018C0000197F1F7089528982AEF30E0C9010197B0
:1018D000F1F7299AC9010197F1F78BB18F708061F7
:1018E0008BB9C9010197F1F72998C9010197F1F75F
:1018F000299AC9010197F1F78BB18F708BB9C90192
:101900000197F1F72998C9010197F1F7289AC901C0
:101910000197F1F7299AC9010197F1F78BB18F70FF
:1019200080628BB9C9010197F1F72998C901019724
:10193000F1F7299AC9010197F1F78BB18F708BB933
:10194000C9010197F1F72998C9010197F1F7289882
:10195000C9010197F1F7299AC9010197F1F78BB1F4
:101960008F7080618BB9C9010197F1F72998C9017E
:101970000197F1F7299AC9010197F1F78BB18F709F
:101980008BB9C9010197F1F72998C9010197F1F7BE
:101990000895883019F40E94630C08950E943A0C4F
:1019A00008951F93CF93DF93EC0110E003C00E94D2
:1019B0003A0C1F5FFE01E10FF11D80818823B9F70A
:1019C000DF91CF911F910895813039F0813050F02F
:1019D000823029F0833031F404C0605C03C0605F62
:1019E00001C0605B862F80680E94FE0B08950F93F4
:1019F0001F938A010E94E40CC8010E94D10C1F9120
:101A00000F91089581E00E94FE0B089585E00E94E9
:101A1000FE0B089587E00E94FE0B089586E00E9469
:101A2000FE0B089584E00E94FE0B089588E00E945A
:101A3000FE0B08958CE00E94FE0B08958EE00E943C
:101A4000FE0B08958FE00E94FE0B08950F931F93E5
:101A5000DF93CF93CDB7DEB760970FB6F894DEBFB4
:101A60000FBECDBF8E010F5F1F4FB8014AE050E09F
:101A70000E940A18C8010E94D10C60960FB6F89413
:101A8000DEBF0FBECDBFCF91DF911F910F910895A3
:101A9000DF92EF92FF920F931F937B018C0120E066
:101AA00030E040E050E00E94541787FF03C080E020
:101AB00090E010C0DD24C801B70120E034E244E723
:101AC00059E40E94B315181614F4DD24D39481E070
:101AD000D8268D2D1F910F91FF90EF90DF900895E4
:101AE00090E08150853008F491E0892F08950F939C
:101AF0001F938C010E94020D80E060E04AE251E0F9
:101B00000E94F70C81E060E0A8010E94F70C80E2DF
:101B10009EE429E130E0F9013197F1F70197D9F717
:101B20001F910F9108950F931F938C010E94020D36
:101B300080E060E043E351E00E94F70C81E060E068
:101B4000A8010E94F70C80E29EE429E130E0F9014F
:101B50003197F1F70197D9F71F910F910895AF923F
:101B6000BF92CF92DF92EF92FF920F931F93CF938A
:101B7000DF938C01EB017A010E94020D80E060E0AE
:101B8000A8010E94F70C209741F08881882329F052
:101B900081E060E0AE010E94F70CB70180E090E0C8
:101BA0000E9454165B016C0120E030E04AE753E4E8
:101BB0000E9458177B018C0120E030E040E85FE391
:101BC0000E94B31588231CF461E070E024C0C801B2
:101BD000B70120E03FEF4FE757E40E945417181673
:101BE000B4F4C601B50120E030E040E251E40E94C7
:101BF00058170E94241689E190E005C0FC01319736
:101C0000F1F76150704061157105C1F707C0C80157
:101C1000B7010E942416CB010197F1F7DF91CF9114
:101C20001F910F91FF90EF90DF90CF90BF90AF90FA
:101C300008950E94020D80E060E04AE351E00E94B6
:101C4000F70C81E060E049E451E00E94F70C089550
:101C50000E94020D80E060E049E551E00E94F70C2F
:101C600081E060E048E651E00E94F70C80E29EE4EB
:101C700029E130E0F9013197F1F70197D9F708959B
:101C80000E94190E0E94E30B823421F1833480F408
:101C9000823301F1833328F4803311F1813321F54C
:101CA00017C08433D9F08433B8F08134E9F410C01C
:101CB000813671F0823628F4833471F08434A1F4D3
:101CC0000DC0833649F0833628F0843669F406C0A7
:101CD00083E007C084E005C085E003C086E001C062
:101CE0008AE08093FA04089587E791E00E94930DBB
:101CF00008950E94020D80E060E047E851E00E94F4
:101D0000F70C81E060E044E951E00E94F70C0E948A
:101D1000E30B813321F481E08093000515C0823309
:101D2000B1F482E08093000581E08093BB0480E001
:101D300090E0A0E0B0E08093FB049093FC04A093BB
:101D4000FD04B093FE0487E08093FA04089584EACA
:101D500091E00E94930D0895EF92FF920F931F93CD
:101D60000E94020D80E060E042EB51E00E94F70C1F
:101D700081E060E040EC51E00E94F70C0E94E30B30
:101D8000833279F40E94940A80ED91E00E94770DED
:101D900080E197E229E130E0F9013197F1F701970D
:101DA000D9F70E94020D80E060E04BED51E00E9407
:101DB000F70C81E060E04AEE51E00E94F70C0E94CF
:101DC000E30B8332D1F560E070E080E89FE30E948E
:101DD000A20A8AEF91E00E94770D80E197E229E163
:101DE00030E0F9013197F1F70197D9F70E94060B1E
:101DF0007B018C010E941A0B9B01AC016093F604DD
:101E00007093F7048093F8049093F904E092B70478
:101E1000F092B8040093B9041093BA04C801B70152
:101E20000E947802882329F48CE092E00E94770DCA
:101E300004C088E192E00E94930D1F910F91FF90E2
:101E4000EF9008950E94020D80E060E045E252E0CC
:101E50000E94F70C81E060E045E352E00E94F70C3D
:101E60000E94E30B833211F40E94AC0E82E0809357
:101E7000FA040895482FE82FF92FDF010D90002074
:101E8000E9F71197A81B8A2F8450833070F4842FB0
:101E90009C01F90104C0819180538A3030F48E2F67
:101EA000841B8A17C0F381E0089580E00895EF92C3
:101EB000FF920F931F93DF93CF93CDB7DEB7A09719
:101EC0000FB6F894DEBF0FBECDBF4AE023E07E011F
:101ED0000894E11CF11C87010E94BB1790E0970158
:101EE00001C09F5FF901E90FF11D80818032C9F3C4
:101EF000CF010E94D10CA0960FB6F894DEBF0FBEA2
:101F0000CDBFCF91DF911F910F91FF90EF9008957A
:101F1000EF92FF920F931F93DF93CF93CDB7DEB76E
:101F200060970FB6F894DEBF0FBECDBF46E023E04A
:101F30007E010894E11CF11C87010E94BB1790E010
:101F4000970101C09F5FF901E90FF11D8081803287
:101F5000C9F3CF010E94D10C60960FB6F894DEBF92
:101F60000FBECDBFCF91DF911F910F91FF90EF90EA
:101F700008950E94DC170895CF92DF92EF92FF92AE
:101F80000F931F93CF93DF93EC01D62E10E0FF2425
:101F9000EE248EE2C82E4DC00E94E30B982F8332B0
:101FA00009F44AC08A32E1F4112309F440C0012F38
:101FB0000150FE01E00FF11D80818E3219F4FF24E3
:101FC000EE2402C0F110EA9481E0612F0E94E40C3B
:101FD00080E20E943A0C81E0612F0E94E40C28C04C
:101FE00080538A3090F4FF2019F082E08E15F8F0CB
:101FF000FE01E10FF11D9083892F0E943A0C012F01
:102000000F5FFF20A9F0E39413C0943481F4FF2004
:1020100071F4112361F0FE01E10FF11DC0828EE227
:102020000E943A0C012F0F5FFF24F39401C0012F8F
:10203000102F1D1508F4B0CFC10FD11D1882DF91EC
:10204000CF911F910F91FF90EF90DF90CF90089567
:102050000F931F93CF93DF93EC01062F10E021C065
:102060000E94E30B982F8332F1F08A3279F4112326
:10207000C1F0115081E0612F0E94E40C80E20E94C7
:102080003A0C81E0612F0E94E40C0BC080538A302F
:1020900040F4FE01E10FF11D90838AE20E943A0CA8
:1020A0001F5F1017E8F2C10FD11D1882DF91CF9189
:1020B0001F910F910895EF92FF920F931F930E942B
:1020C00064027B018C010E94020D80E060E046E426
:1020D00052E00E94F70C81E060E00E94E40C84E58D
:1020E00092E00E94D10CC801B7010E94570F80E313
:1020F00095E729E130E0F9013197F1F70197D9F738
:102100000E94020D80E060E046E552E00E94F70C7C
:1021100081E060E044E652E00E94F70C0E94E30B8D
:10212000813319F50E94020D80E060E040E752E043
:102130000E94F70C81E060E044E652E00E94F70C58
:102140000E94E30B813389F460E070E080E090E06E
:102150000E94A402882329F48EE792E00E94770D62
:1021600004C08CE892E00E94930D82E08093FA0410
:102170001F910F91FF90EF900895EF92FF920F93B0
:102180001F93DF93CF93CDB7DEB765970FB6F89463
:10219000DEBF0FBECDBF0E94020D80E060E04AE9C5
:1021A00052E00E94F70C80E197E229E130E0F9016A
:1021B0003197F1F70197D9F70E94020D80E060E0B6
:1021C0004AEA52E00E94F70C81E060E00E94E40CD1
:1021D0008E010F5F1F4FC80166E00E942810C801E2
:1021E0000E944E04882319F484EB92E045C00E94BB
:1021F000020D80E060E044EC52E00E94F70C81E0C8
:1022000060E00E94E40C98E0E92EF12CEC0EFD1E3B
:10221000C70166E00E942810C7010E943A0F882378
:1022200019F482ED92E028C00E94020D80E060E087
:1022300042EE52E00E94F70C81E060E00E94E40C64
:102240008E01015F1F4FC80166E00E942810C70180
:10225000B8010E940118009719F08BEE92E00CC0B3
:10226000C7010E946103882329F489EF92E00E944C
:10227000770D04C08BE093E00E94930D82E0809381
:10228000FA0465960FB6F894DEBF0FBECDBFCF91AE
:10229000DF911F910F91FF90EF900895CF92DF9201
:1022A000EF92FF920F931F93DF93CF93CDB7DEB7DB
:1022B0002B970FB6F894DEBF0FBECDBF0E94020D64
:1022C00080E060E04AE153E00E94F70C80E197E291
:1022D00029E130E0F9013197F1F70197D9F70E9430
:1022E000020D80E060E04AE253E00E94F70C81E0DA
:1022F00060E00E94E40C0E94E30B89831A820E9432
:102300003A0CCE0101960E94E017C82E815085300C
:1023100018F086E393E064C08C2D0E9480037B015B
:102320008C010E94020D80E060E045E453E00E94D1
:10233000F70C81E060E00E94E40CC801B7010E9444
:10234000880F80E29EE429E130E0F9013197F1F74E
:102350000197D9F70E94020D80E060E042E553E06A
:102360000E94F70C81E060E044E552E00E94F70C27
:1023700081E061E00E94E40C8E010D5F1F4FC801F7
:1023800068E00E94BC0FC8010E94DC177B018C0131
:1023900020E030E040E050E00E94541788237CF0B9
:1023A000DD24C801B70120E034E244E759E40E948B
:1023B000B315181614F4DD24D394DD2019F080E64B
:1023C00093E00EC08C2DB801A7010E94AB038823B7
:1023D00029F48FE693E00E94770D04C08BE093E030
:1023E0000E94930D82E08093FA042B960FB6F89426
:1023F000DEBF0FBECDBFCF91DF911F910F91FF9038
:10240000EF90DF90CF900895EF92FF920F931F937C
:102410000E94420A7B018C0120E030E040E050E065
:102420000E94B315882324F4EE24FF2400E010E07A
:10243000B701C8011F910F91FF90EF9008950E947E
:10244000020D80E060E04EE753E00E94F70C81E06F
:1024500060E00E94E40C84E592E00E94D10C60915F
:10246000FB047091FC048091FD049091FE040E9495
:10247000570F80E395E729E130E0F9013197F1F753
:102480000197D9F70E94020D80E060E04CE853E02C
:102490000E94F70C81E060E04DE953E00E94F70CE8
:1024A0000E94E30B813309F03EC06091FB04709100
:1024B000FC048091FD049091FE040E94C7028823D1
:1024C00051F58DEA93E00E94770D0E94020D80E0A5
:1024D00060E04BEB53E00E94F70C81E060E046ECDB
:1024E00053E00E94F70C80E395E729E130E0F90121
:1024F0003197F1F70197D9F780E090E0A0E0B0E0E4
:102500008093FB049093FC04A093FD04B093FE041D
:102510001092FA04089586ED93E00E94930D87E0EF
:102520008093FA040895882351F486EE93E060EFD7
:1025300073E048EE53E00E94AF0D1092FA04089544
:102540008F929F92AF92BF92CF92DF92EF92FF92C3
:102550000F931F93DF93CF93CDB7DEB761970FB67D
:10256000F894DEBF0FBECDBF8091BB04BE016F5F8C
:102570007F4F0E94EC028091BB040E9480035B01AC
:102580006C010E94020D80E060E04DEF53E00E947C
:10259000F70C81E060E04AE054E00E94F70C88E824
:1025A00093E129E130E0F9013197F1F70197D9F78B
:1025B0000E944F0B0E94020D80E060E047E154E072
:1025C0000E94F70C28EA822E21E6922E0E94041225
:1025D0007B018C01C4010197F1F781E060E00E946A
:1025E000E40CC801B7010E94880F8FE194E00E94BB
:1025F000D10C0E94D20B833229F08A3239F7109223
:10260000FA0453C0C801B701A60195010E945817EA
:102610007B018C016091FB047091FC048091FD04AE
:102620009091FE04A80197010E944F156093FB044E
:102630007093FC048093FD049093FE040E94020DAD
:1026400080E060E0AE014F5F5F4F0E94F70C81E0D9
:1026500060E00E94E40C84E592E00E94D10CC80185
:10266000B7010E94880F80E29EE429E130E0F90181
:102670003197F1F70197D9F70E94020D80E060E0F1
:1026800043E254E00E94F70C81E060E044E652E04F
:102690000E94F70C0E94E30B813311F487E003C022
:1026A000803319F489E08093FA0461960FB6F894A8
:1026B000DEBF0FBECDBFCF91DF911F910F91FF9075
:1026C000EF90DF90CF90BF90AF909F908F90089544
:1026D000CF92DF92EF92FF920F931F93DF93CF93EE
:1026E000CDB7DEB761970FB6F894DEBF0FBECDBF92
:1026F0008091BB046E010894C11CD11CB6010E94DC
:10270000EC028091BB040E9480037B018C010E943B
:10271000020D80E060E00E94E40C8091BB0490E038
:102720000E94260D80E061E040E354E00E94F70C37
:1027300080E063E0A6010E94F70C81E060E00E9467
:10274000E40C84E592E00E94D10CC801B7010E941C
:10275000880F83E394E00E94D10C88E893E129E19B
:1027600030E0F9013197F1F70197D9F70E94E30BB7
:10277000833211F488E02DC0813451F48091BB0480
:102780008F5F8093BB04863008F461C081E00BC08A
:10279000823461F48091BB0481508093BB04882310
:1027A00009F055C085E08093BB0451C08434E9F43E
:1027B0006091FB047091FC048091FD049091FE04F3
:1027C00020E030E040E050E00E945417181624F456
:1027D00089E08093FA043BC087E394E063E474E00B
:1027E00040ED57E00E94AF0D32C0833481F5609117
:1027F000FB047091FC048091FD049091FE0420E0A4
:1028000030E040E050E00E9454171816F4F40E94A3
:10281000020D80E060E043E554E00E94F70C81E0A7
:1028200060E044E652E00E94F70C0E94E30B813323
:1028300071F480E090E0A0E0B0E08093FB0490931E
:10284000FC04A093FD04B093FE041092FA04619678
:102850000FB6F894DEBF0FBECDBFCF91DF911F91B1
:102860000F91FF90EF90DF90CF900895CF92DF927D
:10287000EF92FF920F931F93DF93CF93CDB7DEB705
:1028800027970FB6F894DEBF0FBECDBF13E039E136
:10289000C32ED12C7E010894E11CF11C02E04CC037
:1028A0000E94020D80E060E041E654E00E94F70CD7
:1028B00081E060E04DE654E00E94F70C812F90E04B
:1028C0000E94260D88E99AE3F6013197F1F7019706
:1028D000D9F70E94020D80E060E04AEA52E00E94CF
:1028E000F70C81E060E00E94E40CC70166E00E9402
:1028F0002810C7010E944E04882361F081E0809374
:10290000FF040093FA0487E794E00E94770D1123F7
:1029100099F417C0115029F084EB92E00E94930DB6
:102920000BC087E894E066E974E048E853E10E9450
:10293000AF0D1092FA0405C08091FF04882309F4BA
:10294000AFCF27960FB6F894DEBF0FBECDBFCF91A5
:10295000DF911F910F91FF90EF90DF90CF9008953E
:102960000F931F93DF93CF9300D00F92CDB7DEB7B5
:102970000E94270C0E946A0B19821A821B82CE01C8
:1029800001960E9489040E94FD030E94280E409136
:10299000B7045091B8046091B9047091BA040091E1
:1029A000F6041091F7042091F8043091F90480E8BE
:1029B0000E94C2070F900F900F90CF91DF911F914F
:1029C0000F910895EF92FF920F931F930E94B014FE
:1029D0000F2EF0E0EF2EF0E0FF2EF0E00F2FF0E0F2
:1029E0001F2FF02D8091FA04853079F1863080F424
:1029F000823011F1833030F48823C1F0813009F046
:102A00004AC017C08330D9F0843009F044C01AC0DE
:102A1000883021F1893028F48630D1F08730D9F51B
:102A20001AC08930F1F08A30B1F51EC00E94790ECB
:102A3000D9CF0E943614D6CF0E94400ED3CF0E9429
:102A40004E11D0CF0E94BD10CDCF0E945B10CACFD7
:102A50000E94220FC7CF0E946813C4CF0E94A01209
:102A6000C1CF0E941F12BECF1092FF04109200052A
:102A7000E092FB04F092FC040093FD041093FE042A
:102A80001092FA0485EA94E06BEB73E040ED57E0B6
:102A90000E94AF0DA7CF1092FA04A4CF5058BB27C5
:102AA000AA270ED0C7C1B8D130F0BDD120F031F483
:102AB0009F3F11F41EF49DC10EF4E095E7FB93C116
:102AC000E92FC9D180F3BA17620773078407950706
:102AD00018F071F49EF5E1C10EF4E0950B2EBA2FBB
:102AE000A02D0B01B90190010C01CA01A001112414
:102AF000FF27591B99F0593F50F4503E68F11A16C0
:102B0000F040A22F232F342F4427585FF3CF469550
:102B100037952795A795F0405395C9F77EF41F1672
:102B2000BA0B620B730B840BBAF09150A1F0FF0F3C
:102B3000BB1F661F771F881FC2F70EC0BA0F621F28
:102B4000731F841F48F4879577956795B795F79518
:102B50009E3F08F0B3CF9395880F08F09927EE0FAA
:102B60009795879508951BD108F481E008950CD0BE
:102B700061C159D140F050D130F021F45F3F19F0DC
:102B800032C151118BC135C166D198F39923C9F374
:102B90005523B1F3951B550BBB27AA276217730763
:102BA000840738F09F5F5F4F220F331F441FAA1F17
:102BB000A9F333D00E2E3AF0E0E830D091505040D7
:102BC000E695001CCAF729D0FE2F27D0660F771F85
:102BD000881FBB1F261737074807AB07B0E809F067
:102BE000BB0B802DBF01FF2793585F4F2AF09E3FFC
:102BF000510568F0F8C052C15F3FECF3983EDCF33A
:102C0000869577956795B795F7959F5FC9F7880F74
:102C1000911D9695879597F90895E1E0660F771FC6
:102C2000881FBB1F621773078407BA0720F0621B57
:102C3000730B840BBA0BEE1F88F7E095089504D050
:102C40006894B1112BC108950ED188F09F5790F070
:102C5000B92F9927B751A0F0D1F0660F771F881FC1
:102C6000991F1AF0BA95C9F712C0B13081F015D189
:102C7000B1E0089512C1672F782F8827B85F39F027
:102C8000B93FCCF3869577956795B395D9F73EF420
:102C900090958095709561957F4F8F4F9F4F0895C8
:102CA00097FB0EF4A9D03EC0E89409C097FB3EF410
:102CB00090958095709561957F4F8F4F9F4F992389
:102CC000A9F0F92F96E9BB279395F6958795779507
:102CD0006795B795F111F8CFFAF4BB0F11F460FFC7
:102CE0001BC06F5F7F4F8F4F9F4F16C0882311F01F
:102CF00096E911C0772321F09EE8872F762F05C033
:102D0000662371F096E8862F70E060E02AF09A95CD
:102D1000660F771F881FDAF7880F9695879597F9C2
:102D20000895E894F92F96EBFF2381F0121613060D
:102D30001406440B9395F695879577956795579567
:102D40004040FF23B9F71BC099270895882351F409
:102D50009850D2F7872B762F652F542F432F322F81
:102D600020E0B1F3121613061406440B88233AF040
:102D70009A95440F551F661F771F881FCAF7552362
:102D80004AF4440F551F11F460FF04C06F5F7F4F7A
:102D90008F4F9F4F880F9695879597F90895990FB4
:102DA0000008550FAA0BE0E8FEEF16161706E80715
:102DB000F907C0F012161306E407F50798F0621B36
:102DC000730B840B950B39F40A2661F0232B242B0B
:102DD000252B21F408950A2609F4A140A6958FEF2A
:102DE000811D811D089597F99F6780E870E060E07C
:102DF00008959FEF80EC089590958095709560956B
:102E000050954095309521953F4F4F4F5F4F6F4FF5
:102E10007F4F8F4F9F4F089500240A941616170670
:102E200018060906089500240A94121613061406BB
:102E300005060895092E0394000C11F4882352F01E
:102E4000BB0F40F4BF2B11F460FF04C06F5F7F4FD6
:102E50008F4F9F4F089557FD9058440F551F59F0BD
:102E60005F3F71F04795880F97FB991F61F09F3F77
:102E700079F087950895121613061406551FF2CFA0
:102E80004695F1DF08C0161617061806991FF1CFF0
:102E900086957105610508940895E894BB27662717
:102EA0007727CB0197F908957ADF08F48FEF08951B
:102EB0000BD0C0CFB1DF28F0B6DF18F0952309F0B2
:102EC00092CF97CF1124EACFC6DFA0F3959FD1F31D
:102ED000950F50E0551F629FF001729FBB27F00DC8
:102EE000B11D639FAA27F00DB11DAA1F649F66271D
:102EF000B00DA11D661F829F2227B00DA11D621F6C
:102F0000739FB00DA11D621F839FA00D611D221F25
:102F1000749F3327A00D611D231F849F600D211D09
:102F2000822F762F6A2F11249F5750408AF0E1F0AC
:102F300088234AF0EE0FFF1FBB1F661F771F881FF5
:102F400091505040A9F79E3F510570F04CCFA6CF4D
:102F50005F3FECF3983EDCF3869577956795B795E0
:102F6000F795E7959F5FC1F7FE2B880F911D96950A
:102F7000879597F90895EF92FF920F931F93F22F81
:102F8000F02E47FD02C0E4E001C0E4E1242F332726
:102F900027FD309537FF03C0309521953F4F4F2DCA
:102FA000512F0F2FEE2E0E9449188F2D912F1F9118
:102FB0000F91FF90EF900895662777270C94AB1937
:102FC000FC0188279927E89421912032E9F32930E0
:102FD00010F02E30C8F32B3241F02D3239F46894C2
:102FE00004C00E942B18820F911D219120532A307A
:102FF000C0F31EF4909581959F4F0895F8940C941A
:10300000831CFB01DC018D91019080190110D9F323
:10301000990B0895FB019F01E8944230C4F04532BA
:10302000B4F44A3029F497FB1EF4909581959F4F94
:10303000642F77270E94161C805D8A330CF0895D0F
:103040008193CB010097A1F716F45DE251931082B2
:10305000C9010C94031C7AE0979F902D879F802DC7
:10306000910D11240895F999FECF92BD81BDF89A72
:10307000992780B50895262FF999FECF1FBA92BDE2
:1030800081BD20BD0FB6F894FA9AF99A0FBE019649
:103090000895A9E0B0E0EFE4F8E10C94501C6A0157
:1030A000122FA02EBE2C2BE3201718F42CE3922E07
:1030B00002C0902E9394AE014F5F5F4F27E0092D21
:1030C0000E940B1BBC018981E82EFF24C701897077
:1030D0009070019711F4ADE209C0B1FE02C0ABE2FD
:1030E00005C0B0FC02C0A0E001C0A0E2E3FE3BC00E
:1030F000AA2311F423E001C024E0211710F020E0FE
:1031000002C0121B212FEB2CB4FE02C0322F0AC0CA
:10311000F601322F80E202C0819331503323E1F770
:10312000C20ED11CAA2319F0F601A1936F01F6017A
:103130003196E2FE05C09EE4D6019C9381E404C072
:103140009EE6D6019C9381E611968C9391833296EC
:10315000DF01832F90E202C09D9381508823E1F725
:10316000E30FF11D40C0E2FE42C0AA2311F423E0A8
:1031700001C024E0211710F020E002C0121B212F13
:10318000EB2CB4FE02C0922F0AC0F601922F80E20F
:1031900002C0819391509923E1F7C20ED11CAA235A
:1031A00019F0F601A1936F01F6013196E2FE08C015
:1031B00089E4D6018C938EE411968C9386E407C043
:1031C00089E6D6018C938EE611968C9386E68183F0
:1031D0003296DF01892F20E202C02D93815088238F
:1031E000E1F7E90FF11D10822EEF3FEFAFC0161689
:1031F00017061CF041E050E003C0AB014F5F5F4F8A
:10320000AA2019F480E090E003C08A2D90E0019696
:1032100020E030E0AA2311F021E030E0240F351F38
:10322000280F391F812F90E02817390714F020E06C
:1032300002C0121B212F4B2D50E0CA0180719070EB
:10324000B4FC0DC0B3FC0BC0F601322F40E202C04B
:10325000419331503323E1F7C20ED11C01C0322F0C
:10326000AA2319F0F601A1936F01892B11F0132FF6
:103270000AC0F601132F80E302C08193115011237D
:10328000E1F7C30ED11C092D060FBA8090E1892EFB
:10329000912C8E209F20E4FE04C0F1E3BF1609F4B8
:1032A0000150101614F001E003C0093008F008E0E6
:1032B0009B0177FF02C020E030E0CB010196821B2A
:1032C000930BFE013196E80FF91F8EE2F82E3B01B9
:1032D000601A71088A2D90E044275527481B590B26
:1032E0008FEF2F3F380719F4D601FD926D01621759
:1032F00073072CF06216730614F4808101C080E31A
:103300002150304031962417350724F0D6018D9393
:103310006D01E6CF2617370749F4B5E3BB1528F052
:10332000BB1621F48114910409F481E3F601819321
:10333000D601812F90E202C09C9381501196882380
:10334000D9F7E10FF11D108220E030E0C901299684
:10335000EEE00C946C1CA0E0B0E0E1EBF9E10C9421
:10336000521CEC015B016115710519F0FB019183A1
:103370008083F9908F2D90E00E94E31B892BC9F781
:10338000FDE2FF1621F4F990EE24E39405C02BE250
:10339000F21609F4F990EE248E0101501040C80194
:1033A00068E670E043E050E00E94EB1B892B01F5DA
:1033B0008E010E5F1F4FC8016BE670E045E050E0E4
:1033C0000E94EB1B892B19F48E01095F1F4FA1147A
:1033D000B10419F0F50111830083E0FC04C070E032
:1033E00090E080E814C070E090E080E86FEF08C1E2
:1033F000C80160E770E043E050E00E94EB1B892BBE
:1034000069F4A114B10429F470E090E080EC6FE756
:10341000F7C02296F501D183C083F6CF8824992482
:1034200040E050E060E070E0EF2DE053EA30A0F5BE
:10343000F2E0EF2A8E2D90E09C0128703070E2FEC1
:1034400006C0232B79F50894811C911C2BC0232BDB
:1034500019F0089481089108DB01CA0112E0880F75
:10346000991FAA1FBB1F1A95D1F7480F591F6A1F32
:103470007B1F440F551F661F771F4E0F511D611D87
:10348000711D483929E9520729E9620729E17207C4
:1034900048F084E0E82A06C0EE3F31F4E3FC39C08E
:1034A00098E0E92AF990C0CFE53311F0E53189F5CC
:1034B00029912D3219F4E0E1EE2A05C02B3219F0E2
:1034C00081E090E003C0299182E090E0E22FE05398
:1034D000EA3018F0C81BD90B1CC020E030E0FCE03B
:1034E00020383F075CF4C901880F991F880F991F86
:1034F000280F391F220F331F2E0F311DE991E05382
:10350000EA3068F3E4FE03C0309521953F4F820E08
:10351000931ECE2CDD24E1FE07C0A114B10421F0DE
:103520002197F501D183C083CB01BA010E945416C3
:103530007B018C01F3E0CF22DD2423E0C216D1040D
:1035400021F417FB109517F9109557016801C80170
:10355000B70120E030E040E050E00E94B31588233E
:1035600009F44AC097FE0DC027E8E22E20E0F22EB3
:103570009094819491089394C0E2D0E000E010E030
:1035800012C09FE9E92E90E0F92EF6CFF7012591C0
:10359000359145915491C601B5010E9458175B01C0
:1035A0006C018C1A9D0A8C169D0684F7D595C795DB
:1035B0000F5F1F4F0630110529F08CEF9FEFE80ECB
:1035C000F91EF1CFC501D6017C018D018C2D880F2C
:1035D0008D2D881F8F3F51F0C601B50120E030E0EE
:1035E00040E050E00E94B315882331F482E290E07D
:1035F00090930205809301057E2D9F2D802F612FD2
:10360000272F392F482F562FB901CA01CDB7DEB762
:10361000ECE00C946E1C283008F027E03327DA0128
:10362000990F311D87FD916000966105710539F490
:1036300032602E5F3D9330E32A95E1F708959F3F76
:1036400030F080387105610509F03C5F3C5F3D93C7
:10365000913008F08068911DDF93CF931F930F93F3
:10366000FF92EF92192F987F9695E92F9695969550
:10367000E90FFF27E350FF4F99273327EE24FF245C
:10368000A701E70105900894079428F4360FE71E78
:10369000F81E491F511D660F771F881F991F06943A
:1036A000A1F70590079428F4E70EF81E491F561F4E
:1036B000C11D770F881F991F661F0694A1F70590FB
:1036C000079428F4F80E491F561FC71FD11D880FF5
:1036D000991F661F771F0694A1F70590079420F4A1
:1036E000490F561FC71FD81F990F661F771F881FC6
:1036F0000694A9F784911095177041F0D695C79557
:1037000057954795F794E7941A95C1F7E3EAF0E0E7
:1037100068941590159135916591959105907FE28A
:103720007395E118F10A430B560BC90BD009C0F78A
:10373000E10CF11E431F561FC91FD01D7EF47033CC
:1037400011F48A95E6CFE894015030F0080F0AF49E
:103750000027021708F4202F2395022F7A3328F030
:1037600079E37D932A95E9F710C07D932A9589F630
:10377000069497956795379517951794E118F10A70
:10378000430B560BC90BD00998F023957E91739586
:103790007A3308F070E37C932013B8F77E91706160
:1037A0007D9330F0839571E37D9370E32A95E1F783
:1037B0001124EF90FF900F911F91CF91DF919927E6
:1037C00087FD9095089591112EC0803219F089508F
:1037D0008550D0F70895FB01DC014150504088F03E
:1037E0008D9181341CF08B350CF4805E65916134D1
:1037F0001CF06B350CF4605E861B611171F3990B44
:103800000895881BFCCFDC01FC01672F71917723A1
:10381000E1F7329704C07C916D9370836291AE178B
:10382000BF07C8F30895992788270895AA1BBB1BD3
:1038300051E107C0AA1FBB1FA617B70710F0A61BB0
:10384000B70B881F991F5A95A9F780959095BC01D1
:10385000CD010895A1E21A2EAA1BBB1BFD010DC0CC
:10386000AA1FBB1FEE1FFF1FA217B307E407F50730
:1038700020F0A21BB30BE40BF50B661F771F881F0C
:10388000991F1A9469F760957095809590959B01A2
:10389000AC01BD01CF0108952F923F924F925F92EC
:1038A0006F927F928F929F92AF92BF92CF92DF9250
:1038B000EF92FF920F931F93CF93DF93CDB7DEB7B5
:1038C000CA1BDB0B0FB6F894DEBF0FBECDBF099449
:1038D0002A88398848885F846E847D848C849B84A0
:1038E000AA84B984C884DF80EE80FD800C811B81AE
:1038F000AA81B981CE0FD11D0FB6F894DEBF0FBEDD
:0A390000CDBFED010895F894FFCF4C
:10390A0030303030004170706C65004F72616E6704
:10391A0065004D616E676F005374726177626572FC
:10392A0072790042616E616E61005355434345539B
:10393A005321004552524F522100313A5072696365
:10394A006520323A5061737300333A2420343A4383
:10395A00616C20303A4F757400467275697420574D
:10396A0065696768696E67002020205379737465FA
:10397A006D2076312E3000496E76616C6964204F75
:10398A007074696F6E210053656C65637420526FA1
:10399A006C653A00313A41646D696E2020323A55BD
:1039AA0073657200496E76616C696420526F6C654A
:1039BA00210052656D6F76652077656967687400C6
:1039CA005072657373202320746F207461726500CE
:1039DA005461726520446F6E652100506C616365A5
:1039EA0020312E303030204B4700507265737320DF
:1039FA002320746F2063616C2E005363616C652011
:103A0A0043616C69627261746564210043616C2E62
:103A1A0020536176656421005361766520466169A9
:103A2A006C656421005363616C652043616C696253
:103A3A0072617465005072657373202320746F205D
:103A4A00737461727400546F74616C20496E636F91
:103A5A006D653A002400526573657420496E636F80
:103A6A006D653F00313A5965732020303A4E6F0038
:103A7A0041726520796F7520737572653F00496ED2
:103A8A00636F6D65205265736574210052657365B5
:103A9A0074204661696C65642100566572696679AD
:103AAA00204964656E746974790050617373776F25
:103ABA0072643A0057726F6E672050617373776F42
:103ACA00726421004E65772050617373776F726458
:103ADA003A00496E76616C696420466F726D617452
:103AEA002100436F6E6669726D3A004E6F74204D05
:103AFA0061746368696E67210050617373776F72CE
:103B0A0064204368616E676564210055706461745E
:103B1A0065204661696C656421005570646174654D
:103B2A002050726963652F4B47004974656D2028E0
:103B3A00312D35293A00496E76616C696420496EE7
:103B4A00646578210043757272656E743A242F4B4E
:103B5A0047004E65772050726963652F4B473A00DC
:103B6A00496E76616C696420507269636521005000
:103B7A007269636520557064617465642100546FCD
:103B8A0074616C20416D6F756E743A00436F6E6696
:103B9A0069726D207061796D656E743F00313A59B2
:103BAA0065732020303A43616E63656C0050617919
:103BBA006D656E7420446F6E6521005468616E6B8A
:103BCA0020796F752100486176652061206E6963EE
:103BDA006520646179005061796D656E7420466173
:103BEA00696C6564210043616E63656C6C65640091
:103BFA0052657475726E696E672E2E2E00506C6156
:103C0A00636520776569676874007468656E2070FB
:103C1A00726573732023005765696768743A0020D8
:103C2A006B670041646420616E6F746865723F005F
:103C3A002E20002F4B47004361727420456D70742B
:103C4A00792100416464206974656D732066697224
:103C5A0073740043616E63656C206F726465723FB2
:103C6A000041646D696E204C6F67696E004174741F
:103C7A00656D7074733A00416363657373204772AC
:103C8A00616E746564210053797374656D204C6F9D
:103C9A00636B65642100506C6561736520776169A7
:103CAA00742E2E2E004C6F67676564204F75740062
:103CBA0001800000803F010000803F010000204198
:103CCA000000A04100000C420000484200008C4263
:103CDA000001020300010203313233413435364216
:083CEA00373839432A30234426
:00000001FF
